:100000000C942A000C9447000C9447000C94470071
:100010000C9447000C9447000C9447000C94470044
:100020000C9447000C9447000C9447000C94470034
:100030000C9447000C9447000C9447000C94470024
:100040000C9447000C9447000C9447000C94470014
:100050000C94470011241FBECFE5D4E0DEBFCDBF16
:1000600011E0A0E6B0E0EAE4F9E002C005900D92EC
:10007000A036B107D9F711E0A0E6B1E001C01D92AA
:10008000A036B107E1F70E945D000C94A3040C9424
:10009000000080E487B987E886B90895806C87B945
:1000A000369A349BFECF349A24B135B1C9010895F4
:1000B00083B78B6183BFBB9A08952F923F924F9273
:1000C0005F926F927F928F929F92AF92BF92CF92E8
:1000D000DF92EF92FF920F931F93CF93DF9381E014
:1000E0008ABB8FEF87BB80E487B987E886B983B77F
:1000F0008B6183BFBB9ACC24DD248824992423E020
:100100008216910411F48824992430EC37B9369A78
:10011000349BFECF349A84B195B124EF31E0829FB5
:10012000E001839FD00D929FD00D1124CD2FDD27AC
:10013000C695C69533EC37B9369A349BFECF349AC0
:1001400084B195B18252914040F4C114D10449F078
:10015000C49A91E0C92ED12C04C0C49882E0C82E64
:10016000D12C8114910439F4C114D10411F41E016D
:100170002E013E010BC031E08316910411F42E01D3
:1001800005C082E08816910409F41E015E01A218E0
:10019000B308B50180E090E00E94FE017B018C0174
:1001A00020E030E040EB50E40E949E011816F4F08D
:1001B000BE016419750980E090E00E94FE0120E014
:1001C00030E040EB50E40E949E0118167CF0BE0126
:1001D0006619770980E090E00E94FE0120E030E09F
:1001E00040EB50E40E949E0118163CF421E0C21638
:1001F000D10419F4C69A32E838C085E0A816B104D3
:1002000050F020E030E040EB50E4C801B7010E941C
:10021000CE01181624F5BE01641975096530710503
:1002200060F080E090E00E94FE0120E030E040EBD2
:1002300050E40E94CE01181694F4BE0166197709A5
:1002400065307105A8F080E090E00E94FE0120E09A
:1002500030E040EB50E40E94CE0118164CF021E053
:10026000C216D10429F4C69A3AE53CBFDF9A35C0DC
:10027000C5010397029768F09E0123503040C901E1
:1002800084199509029728F026193709223031057B
:1002900040F481E0C816D10421F4C59AC69826E43A
:1002A00015C032E0A316B10451F0CE0184199509AE
:1002B000029729F0CE0186199709029749F481E047
:1002C000C816D10429F4C59AC69822E32CBF04C0ED
:1002D00088B38F7988BB1CBEDF98CE0147970D97F6
:1002E00020F4C09A88B3897F10C0CE018497079705
:1002F00020F4C19A88B38A7F08C0AB9720F0C29AD5
:1003000088B38C7F02C088B3887F88BB20E030E050
:100310000BC0E9E1F0E03197F1F70197D1F72F5FDA
:100320003F4F2A30310519F088E893E1F2CF089465
:10033000811C911C0894C11CD11CE1CEA8E1B0E045
:10034000E4EAF1E00C94780469837A838B839C83DC
:100350002D833E834F83588789E0E82EF12CEC0EE5
:10036000FD1EB701CE0101960E949B038E010F5E18
:100370001F4FB801CE0105960E949B0389858230EC
:1003800040F08989823028F0B801C7010E94130427
:1003900001C08FEF6896E6E00C949404A8E1B0E009
:1003A000E4EDF1E00C94780469837A838B839C8379
:1003B0002D833E834F83588789E0E82EF12CEC0E85
:1003C000FD1EB701CE0101960E949B038E010F5EB8
:1003D0001F4FB801CE0105960E949B03898582308C
:1003E00040F08989823028F0B801C7010E941304C7
:1003F00001C081E06896E6E00C949404A8E0B0E0C7
:10040000E4E0F2E00C9476047B018C016115710547
:100410008105910519F482E0898360C083E08983B6
:100420008EE1C82ED12CDC82CB82ED82FE820F833E
:100430001887C801B7010E947702BC016150704063
:1004400077FF39C0EE27FF27E61BF70B20E030E0EF
:1004500040E050E081E090E0A0E0B0E00E2E04C06B
:10046000880F991FAA1FBB1F0A94D2F70197A109F1
:10047000B1098E219F21A023B1230097A105B105C9
:1004800021F021E030E040E050E004C016950795EF
:10049000F794E794EA95D2F72E293F29402B512B68
:1004A0002D833E834F8358878EE190E0861B970B08
:1004B0009C838B8313C06115710581F0062E04C0E7
:1004C000EE0CFF1C001F111F0A94D2F7ED82FE8272
:1004D0000F831887C61AD70ADC82CB821A82CE0114
:1004E00001960E94C6022896E8E00C949204EF92CE
:1004F000FF920F931F937B018C0180E0E81680E050
:10050000F80681E0080780E0180788F48FEFE81606
:10051000F1040105110531F028F088E090E0A0E039
:10052000B0E017C080E090E0A0E0B0E012C080E052
:10053000E81680E0F80680E0080781E0180728F058
:1005400088E190E0A0E0B0E004C080E190E0A0E0AD
:10055000B0E020E230E040E050E0281B390B4A0BCD
:100560005B0B04C016950795F794E7948A95D2F72C
:10057000F701E05AFF4F8081281B310941095109D9
:10058000C9011F910F91FF90EF900895DF92EF92B4
:10059000FF920F931F93FC01E480F5800681178181
:1005A000D1808081823048F480E090E0A0E1B0E02A
:1005B000E82AF92A0A2B1B2BA5C0843009F49FC016
:1005C000823021F4EE24FF24870105C0E114F104F8
:1005D0000105110519F4E0E0F0E096C06281738135
:1005E0009FEF623879070CF05BC022E83FEF261BD3
:1005F000370B2A3131052CF020E030E040E050E0AC
:100600002AC0B801A701022E04C0769567955795B8
:1006100047950A94D2F781E090E0A0E0B0E004C0F2
:10062000880F991FAA1FBB1F2A95D2F70197A1090E
:10063000B1098E219F21A023B1230097A105B10507
:1006400021F081E090E0A0E0B0E09A01AB01282B1E
:10065000392B4A2B5B2BDA01C9018F779070A07080
:10066000B07080349105A105B10539F427FF09C0A8
:10067000205C3F4F4F4F5F4F04C0215C3F4F4F4FB7
:100680005F4FE0E0F0E02030A0E03A07A0E04A074A
:10069000A0E45A0710F0E1E0F0E079018A0127C0F8
:1006A0006038710564F5FB01E158FF4FD801C701BF
:1006B0008F779070A070B07080349105A105B1055E
:1006C00039F4E7FE0DC080E490E0A0E0B0E004C0A3
:1006D0008FE390E0A0E0B0E0E80EF91E0A1F1B1FB8
:1006E00017FF05C016950795F794E794319687E0B4
:1006F00016950795F794E7948A95D1F705C0EE24EF
:10070000FF248701EFEFF0E06E2F6795662767956E
:10071000902F9F77D794DD24D7948E2F8695492FDD
:10072000462B582F5D29B701CA011F910F91FF90E9
:10073000EF90DF900895FC01DB014081518122811F
:10074000622F6F7770E0221F2227221F9381892F4B
:10075000880F822B282F30E0991F9927991F119617
:100760009C93119721153105A9F541155105610596
:10077000710511F482E037C082E89FEF13969C93D5
:100780008E9312979A01AB0167E0220F331F441F2B
:10079000551F6A95D1F783E08C930DC0220F331F4C
:1007A000441F551F12968D919C9113970197139694
:1007B0009C938E931297203080E0380780E04807A2
:1007C00080E4580758F314962D933D934D935C9312
:1007D000179708952F3F310579F4411551056105AB
:1007E000710519F484E08C93089564FF03C081E0DF
:1007F0008C9312C01C9210C02F57304013963C931C
:100800002E93129783E08C9387E0440F551F661F49
:10081000771F8A95D1F7706414964D935D936D930D
:100820007C93179708951F93DC01FB019C919230F4
:1008300008F447C08081823008F443C0943051F4FA
:1008400011961C91843099F58181682F70E0611BAD
:1008500071093FC0843021F0923031F48230B9F117
:100860008181882389F12DC011961C9111978230C6
:10087000F1F081811817D9F412962D913C911397BC
:10088000828193818217930794F028173907BCF06F
:1008900014968D919D910D90BC91A02D2481358150
:1008A00046815781281739074A075B0718F4112337
:1008B00041F00AC082179307A407B50740F411233B
:1008C00019F061E070E005C06FEF7FEF02C060E0FB
:1008D00070E0CB011F9108952F923F924F925F924B
:1008E0006F927F928F929F92AF92BF92CF92DF9240
:1008F000EF92FF920F931F93CF93DF93CDB7DEB7A5
:10090000CA1BDB0B0FB6F894DEBF0FBECDBF099438
:100910002A88398848885F846E847D848C849B848F
:10092000AA84B984C884DF80EE80FD800C811B819D
:10093000AA81B981CE0FD11D0FB6F894DEBF0FBECC
:0A094000CDBFED010895F894FFCF3C
:10094A00000102020303030304040404040404046C
:10095A00050505050505050505050505050505053D
:10096A00060606060606060606060606060606061D
:10097A00060606060606060606060606060606060D
:10098A0007070707070707070707070707070707ED
:10099A0007070707070707070707070707070707DD
:1009AA0007070707070707070707070707070707CD
:1009BA0007070707070707070707070707070707BD
:1009CA00080808080808080808080808080808089D
:1009DA00080808080808080808080808080808088D
:1009EA00080808080808080808080808080808087D
:1009FA00080808080808080808080808080808086D
:100A0A00080808080808080808080808080808085C
:100A1A00080808080808080808080808080808084C
:100A2A00080808080808080808080808080808083C
:100A3A00080808080808080808080808080808082C
:00000001FF
